{
  "contractName": "CrowdfundingCampaign",
  "abi": [
    {
      "inputs": [],
      "stateMutability": "nonpayable",
      "type": "constructor"
    },
    {
      "anonymous": false,
      "inputs": [
        {
          "indexed": false,
          "internalType": "uint256",
          "name": "campaignID",
          "type": "uint256"
        },
        {
          "indexed": false,
          "internalType": "address payable",
          "name": "owner",
          "type": "address"
        },
        {
          "indexed": false,
          "internalType": "string",
          "name": "title",
          "type": "string"
        },
        {
          "indexed": false,
          "internalType": "string",
          "name": "description",
          "type": "string"
        },
        {
          "indexed": false,
          "internalType": "string",
          "name": "image",
          "type": "string"
        },
        {
          "indexed": false,
          "internalType": "uint256",
          "name": "duration",
          "type": "uint256"
        },
        {
          "indexed": false,
          "internalType": "uint256",
          "name": "raisingGoal",
          "type": "uint256"
        },
        {
          "indexed": false,
          "internalType": "uint256",
          "name": "deadline",
          "type": "uint256"
        },
        {
          "indexed": false,
          "internalType": "uint256",
          "name": "amountCollected",
          "type": "uint256"
        }
      ],
      "name": "LogCampaign",
      "type": "event"
    },
    {
      "inputs": [
        {
          "internalType": "uint256",
          "name": "",
          "type": "uint256"
        }
      ],
      "name": "campaigns",
      "outputs": [
        {
          "internalType": "uint256",
          "name": "campaignID",
          "type": "uint256"
        },
        {
          "internalType": "address payable",
          "name": "owner",
          "type": "address"
        },
        {
          "internalType": "string",
          "name": "title",
          "type": "string"
        },
        {
          "internalType": "string",
          "name": "description",
          "type": "string"
        },
        {
          "internalType": "string",
          "name": "image",
          "type": "string"
        },
        {
          "internalType": "uint256",
          "name": "duration",
          "type": "uint256"
        },
        {
          "internalType": "uint256",
          "name": "raisingGoal",
          "type": "uint256"
        },
        {
          "internalType": "uint256",
          "name": "deadline",
          "type": "uint256"
        },
        {
          "internalType": "uint256",
          "name": "amountCollected",
          "type": "uint256"
        }
      ],
      "stateMutability": "view",
      "type": "function",
      "constant": true
    },
    {
      "inputs": [],
      "name": "deployer",
      "outputs": [
        {
          "internalType": "address payable",
          "name": "",
          "type": "address"
        }
      ],
      "stateMutability": "view",
      "type": "function",
      "constant": true
    },
    {
      "inputs": [],
      "name": "numberOfCampaigns",
      "outputs": [
        {
          "internalType": "uint256",
          "name": "",
          "type": "uint256"
        }
      ],
      "stateMutability": "view",
      "type": "function",
      "constant": true
    },
    {
      "inputs": [
        {
          "internalType": "uint256",
          "name": "_duration",
          "type": "uint256"
        },
        {
          "internalType": "uint256",
          "name": "_raisingGoal",
          "type": "uint256"
        },
        {
          "internalType": "string",
          "name": "_title",
          "type": "string"
        },
        {
          "internalType": "string",
          "name": "_description",
          "type": "string"
        },
        {
          "internalType": "string",
          "name": "_image",
          "type": "string"
        }
      ],
      "name": "createCampaign",
      "outputs": [
        {
          "internalType": "uint256",
          "name": "",
          "type": "uint256"
        }
      ],
      "stateMutability": "nonpayable",
      "type": "function"
    },
    {
      "inputs": [
        {
          "internalType": "uint256",
          "name": "_campaignID",
          "type": "uint256"
        }
      ],
      "name": "donateToCampaign",
      "outputs": [],
      "stateMutability": "payable",
      "type": "function",
      "payable": true
    },
    {
      "inputs": [
        {
          "internalType": "uint256",
          "name": "_campaignID",
          "type": "uint256"
        }
      ],
      "name": "refund",
      "outputs": [],
      "stateMutability": "nonpayable",
      "type": "function"
    },
    {
      "inputs": [
        {
          "internalType": "uint256",
          "name": "_campaignID",
          "type": "uint256"
        }
      ],
      "name": "withdrawFunds",
      "outputs": [],
      "stateMutability": "nonpayable",
      "type": "function"
    },
    {
      "inputs": [],
      "name": "getAllCampaigns",
      "outputs": [
        {
          "components": [
            {
              "internalType": "uint256",
              "name": "campaignID",
              "type": "uint256"
            },
            {
              "internalType": "address",
              "name": "owner",
              "type": "address"
            },
            {
              "internalType": "uint256",
              "name": "duration",
              "type": "uint256"
            },
            {
              "internalType": "uint256",
              "name": "raisingGoal",
              "type": "uint256"
            },
            {
              "internalType": "uint256",
              "name": "deadline",
              "type": "uint256"
            },
            {
              "internalType": "uint256",
              "name": "amountCollected",
              "type": "uint256"
            },
            {
              "internalType": "string",
              "name": "title",
              "type": "string"
            },
            {
              "internalType": "string",
              "name": "description",
              "type": "string"
            },
            {
              "internalType": "string",
              "name": "image",
              "type": "string"
            }
          ],
          "internalType": "struct CrowdfundingCampaign.CampaignView[]",
          "name": "",
          "type": "tuple[]"
        }
      ],
      "stateMutability": "view",
      "type": "function",
      "constant": true
    },
    {
      "inputs": [],
      "name": "getCurrentTime",
      "outputs": [
        {
          "internalType": "uint256",
          "name": "",
          "type": "uint256"
        }
      ],
      "stateMutability": "view",
      "type": "function",
      "constant": true
    }
  ],
  "bytecode": "0x6080604052600060025534801561001557600080fd5b50336000806101000a81548173ffffffffffffffffffffffffffffffffffffffff021916908373ffffffffffffffffffffffffffffffffffffffff16021790555061262f806100656000396000f3fe6080604052600436106100865760003560e01c806329cb924d1161005957806329cb924d1461014d57806342a4fda81461017857806371572a561461019457806386cdf604146101d1578063d5f39488146101fc57610086565b806307ca140d1461008b578063141961bc146100b6578063155dd5ee146100fb578063278ecde114610124575b600080fd5b34801561009757600080fd5b506100a0610227565b6040516100ad9190611576565b60405180910390f35b3480156100c257600080fd5b506100dd60048036038101906100d891906115d1565b61022d565b6040516100f2999897969594939291906116cf565b60405180910390f35b34801561010757600080fd5b50610122600480360381019061011d91906115d1565b610433565b005b34801561013057600080fd5b5061014b600480360381019061014691906115d1565b6107dd565b005b34801561015957600080fd5b50610162610b1b565b60405161016f9190611576565b60405180910390f35b610192600480360381019061018d91906115d1565b610b23565b005b3480156101a057600080fd5b506101bb60048036038101906101b691906118a6565b610c3e565b6040516101c89190611576565b60405180910390f35b3480156101dd57600080fd5b506101e6610fda565b6040516101f39190611b84565b60405180910390f35b34801561020857600080fd5b5061021161147a565b60405161021e9190611ba6565b60405180910390f35b60025481565b60016020528060005260406000206000915090508060000154908060010160009054906101000a900473ffffffffffffffffffffffffffffffffffffffff169080600201805461027c90611bf0565b80601f01602080910402602001604051908101604052809291908181526020018280546102a890611bf0565b80156102f55780601f106102ca576101008083540402835291602001916102f5565b820191906000526020600020905b8154815290600101906020018083116102d857829003601f168201915b50505050509080600301805461030a90611bf0565b80601f016020809104026020016040519081016040528092919081815260200182805461033690611bf0565b80156103835780601f1061035857610100808354040283529160200191610383565b820191906000526020600020905b81548152906001019060200180831161036657829003601f168201915b50505050509080600401805461039890611bf0565b80601f01602080910402602001604051908101604052809291908181526020018280546103c490611bf0565b80156104115780601f106103e657610100808354040283529160200191610411565b820191906000526020600020905b8154815290600101906020018083116103f457829003601f168201915b5050505050908060050154908060060154908060070154908060080154905089565b60006001600083815260200190815260200160002090506000816000015403610491576040517f08c379a000000000000000000000000000000000000000000000000000000000815260040161048890611c6d565b60405180910390fd5b8060060154816008015410156104dc576040517f08c379a00000000000000000000000000000000000000000000000000000000081526004016104d390611cff565b60405180910390fd5b8060010160009054906101000a900473ffffffffffffffffffffffffffffffffffffffff1673ffffffffffffffffffffffffffffffffffffffff163373ffffffffffffffffffffffffffffffffffffffff161461056e576040517f08c379a000000000000000000000000000000000000000000000000000000000815260040161056590611d91565b60405180910390fd5b60006064600583600801546105839190611de0565b61058d9190611e51565b905060008183600801546105a19190611e82565b905060008360010160009054906101000a900473ffffffffffffffffffffffffffffffffffffffff1673ffffffffffffffffffffffffffffffffffffffff16826040516105ed90611ee7565b60006040518083038185875af1925050503d806000811461062a576040519150601f19603f3d011682016040523d82523d6000602084013e61062f565b606091505b5050905080610673576040517f08c379a000000000000000000000000000000000000000000000000000000000815260040161066a90611f48565b60405180910390fd5b60008060009054906101000a900473ffffffffffffffffffffffffffffffffffffffff1673ffffffffffffffffffffffffffffffffffffffff16846040516106ba90611ee7565b60006040518083038185875af1925050503d80600081146106f7576040519150601f19603f3d011682016040523d82523d6000602084013e6106fc565b606091505b5050905080610740576040517f08c379a000000000000000000000000000000000000000000000000000000000815260040161073790611fb4565b60405180910390fd5b600160008781526020019081526020016000206000808201600090556001820160006101000a81549073ffffffffffffffffffffffffffffffffffffffff0219169055600282016000610793919061149e565b6003820160006107a3919061149e565b6004820160006107b3919061149e565b60058201600090556006820160009055600782016000905560088201600090555050505050505050565b6000600160008381526020019081526020016000209050600081600001540361083b576040517f08c379a000000000000000000000000000000000000000000000000000000000815260040161083290611c6d565b60405180910390fd5b8060060154816008015410610885576040517f08c379a000000000000000000000000000000000000000000000000000000000815260040161087c90612020565b60405180910390fd5b60008160090160003373ffffffffffffffffffffffffffffffffffffffff1673ffffffffffffffffffffffffffffffffffffffff1681526020019081526020016000205411610909576040517f08c379a0000000000000000000000000000000000000000000000000000000008152600401610900906120b2565b60405180910390fd5b600033905060008260090160003373ffffffffffffffffffffffffffffffffffffffff1673ffffffffffffffffffffffffffffffffffffffff16815260200190815260200160002054905060008273ffffffffffffffffffffffffffffffffffffffff168260405161097a90611ee7565b60006040518083038185875af1925050503d80600081146109b7576040519150601f19603f3d011682016040523d82523d6000602084013e6109bc565b606091505b5050905080610a00576040517f08c379a00000000000000000000000000000000000000000000000000000000081526004016109f79061211e565b60405180910390fd5b60008460090160003373ffffffffffffffffffffffffffffffffffffffff1673ffffffffffffffffffffffffffffffffffffffff1681526020019081526020016000208190555081846008016000828254610a5b9190611e82565b9250508190555060008460080154148015610a795750836007015442115b15610b1457600160008681526020019081526020016000206000808201600090556001820160006101000a81549073ffffffffffffffffffffffffffffffffffffffff0219169055600282016000610ad1919061149e565b600382016000610ae1919061149e565b600482016000610af1919061149e565b600582016000905560068201600090556007820160009055600882016000905550505b5050505050565b600042905090565b60006001600083815260200190815260200160002090506000816000015403610b81576040517f08c379a0000000000000000000000000000000000000000000000000000000008152600401610b7890611c6d565b60405180910390fd5b80600701544210610bc7576040517f08c379a0000000000000000000000000000000000000000000000000000000008152600401610bbe9061218a565b60405180910390fd5b34816008016000828254610bdb91906121aa565b92505081905550348160090160003373ffffffffffffffffffffffffffffffffffffffff1673ffffffffffffffffffffffffffffffffffffffff1681526020019081526020016000206000828254610c3391906121aa565b925050819055505050565b600080600090505b600254811015610d2d576000600160008381526020019081526020016000209050806007015442118015610c7e575060008160080154145b15610d1957600160008381526020019081526020016000206000808201600090556001820160006101000a81549073ffffffffffffffffffffffffffffffffffffffff0219169055600282016000610cd6919061149e565b600382016000610ce6919061149e565b600482016000610cf6919061149e565b600582016000905560068201600090556007820160009055600882016000905550505b508080610d25906121de565b915050610c46565b506000600260008154610d3f906121de565b919050819055905060008742610d5591906121aa565b9050816001600084815260200190815260200160002060000181905550336001600084815260200190815260200160002060010160006101000a81548173ffffffffffffffffffffffffffffffffffffffff021916908373ffffffffffffffffffffffffffffffffffffffff16021790555085600160008481526020019081526020016000206002019081610dea91906123d2565b5084600160008481526020019081526020016000206003019081610e0e91906123d2565b5083600160008481526020019081526020016000206004019081610e3291906123d2565b50876001600084815260200190815260200160002060050181905550866001600084815260200190815260200160002060060181905550806001600084815260200190815260200160002060070181905550600060016000848152602001908152602001600020600801819055507f3ae76c0a10666cc34cfbf78fbf458ad51edb2bebca5a74be865f438031b59ec260016000848152602001908152602001600020600001546001600085815260200190815260200160002060010160009054906101000a900473ffffffffffffffffffffffffffffffffffffffff166001600086815260200190815260200160002060020160016000878152602001908152602001600020600301600160008881526020019081526020016000206004016001600089815260200190815260200160002060050154600160008a815260200190815260200160002060060154600160008b815260200190815260200160002060070154600160008c815260200190815260200160002060080154604051610fc299989796959493929190612528565b60405180910390a16002549250505095945050505050565b6060600060025467ffffffffffffffff811115610ffa57610ff961177b565b5b60405190808252806020026020018201604052801561103357816020015b6110206114de565b8152602001906001900390816110185790505b5090506000805b600254811161147157600060016000838152602001908152602001600020600001541461145e57600160008281526020019081526020016000206000015483838151811061108b5761108a6125ca565b5b602002602001015160000181815250506001600082815260200190815260200160002060010160009054906101000a900473ffffffffffffffffffffffffffffffffffffffff168383815181106110e5576110e46125ca565b5b60200260200101516020019073ffffffffffffffffffffffffffffffffffffffff16908173ffffffffffffffffffffffffffffffffffffffff1681525050600160008281526020019081526020016000206005015483838151811061114d5761114c6125ca565b5b602002602001015160400181815250506001600082815260200190815260200160002060060154838381518110611187576111866125ca565b5b6020026020010151606001818152505060016000828152602001908152602001600020600701548383815181106111c1576111c06125ca565b5b6020026020010151608001818152505060016000828152602001908152602001600020600801548383815181106111fb576111fa6125ca565b5b602002602001015160a001818152505060016000828152602001908152602001600020600201805461122c90611bf0565b80601f016020809104026020016040519081016040528092919081815260200182805461125890611bf0565b80156112a55780601f1061127a576101008083540402835291602001916112a5565b820191906000526020600020905b81548152906001019060200180831161128857829003601f168201915b50505050508383815181106112bd576112bc6125ca565b5b602002602001015160c001819052506001600082815260200190815260200160002060030180546112ed90611bf0565b80601f016020809104026020016040519081016040528092919081815260200182805461131990611bf0565b80156113665780601f1061133b57610100808354040283529160200191611366565b820191906000526020600020905b81548152906001019060200180831161134957829003601f168201915b505050505083838151811061137e5761137d6125ca565b5b602002602001015160e001819052506001600082815260200190815260200160002060040180546113ae90611bf0565b80601f01602080910402602001604051908101604052809291908181526020018280546113da90611bf0565b80156114275780601f106113fc57610100808354040283529160200191611427565b820191906000526020600020905b81548152906001019060200180831161140a57829003601f168201915b505050505083838151811061143f5761143e6125ca565b5b60200260200101516101000181905250818061145a906121de565b9250505b8080611469906121de565b91505061103a565b50819250505090565b60008054906101000a900473ffffffffffffffffffffffffffffffffffffffff1681565b5080546114aa90611bf0565b6000825580601f106114bc57506114db565b601f0160209004906000526020600020908101906114da9190611540565b5b50565b60405180610120016040528060008152602001600073ffffffffffffffffffffffffffffffffffffffff168152602001600081526020016000815260200160008152602001600081526020016060815260200160608152602001606081525090565b5b80821115611559576000816000905550600101611541565b5090565b6000819050919050565b6115708161155d565b82525050565b600060208201905061158b6000830184611567565b92915050565b6000604051905090565b600080fd5b600080fd5b6115ae8161155d565b81146115b957600080fd5b50565b6000813590506115cb816115a5565b92915050565b6000602082840312156115e7576115e661159b565b5b60006115f5848285016115bc565b91505092915050565b600073ffffffffffffffffffffffffffffffffffffffff82169050919050565b6000611629826115fe565b9050919050565b6116398161161e565b82525050565b600081519050919050565b600082825260208201905092915050565b60005b8381101561167957808201518184015260208101905061165e565b60008484015250505050565b6000601f19601f8301169050919050565b60006116a18261163f565b6116ab818561164a565b93506116bb81856020860161165b565b6116c481611685565b840191505092915050565b6000610120820190506116e5600083018c611567565b6116f2602083018b611630565b8181036040830152611704818a611696565b905081810360608301526117188189611696565b9050818103608083015261172c8188611696565b905061173b60a0830187611567565b61174860c0830186611567565b61175560e0830185611567565b611763610100830184611567565b9a9950505050505050505050565b600080fd5b600080fd5b7f4e487b7100000000000000000000000000000000000000000000000000000000600052604160045260246000fd5b6117b382611685565b810181811067ffffffffffffffff821117156117d2576117d161177b565b5b80604052505050565b60006117e5611591565b90506117f182826117aa565b919050565b600067ffffffffffffffff8211156118115761181061177b565b5b61181a82611685565b9050602081019050919050565b82818337600083830152505050565b6000611849611844846117f6565b6117db565b90508281526020810184848401111561186557611864611776565b5b611870848285611827565b509392505050565b600082601f83011261188d5761188c611771565b5b813561189d848260208601611836565b91505092915050565b600080600080600060a086880312156118c2576118c161159b565b5b60006118d0888289016115bc565b95505060206118e1888289016115bc565b945050604086013567ffffffffffffffff811115611902576119016115a0565b5b61190e88828901611878565b935050606086013567ffffffffffffffff81111561192f5761192e6115a0565b5b61193b88828901611878565b925050608086013567ffffffffffffffff81111561195c5761195b6115a0565b5b61196888828901611878565b9150509295509295909350565b600081519050919050565b600082825260208201905092915050565b6000819050602082019050919050565b6119aa8161155d565b82525050565b60006119bb826115fe565b9050919050565b6119cb816119b0565b82525050565b600082825260208201905092915050565b60006119ed8261163f565b6119f781856119d1565b9350611a0781856020860161165b565b611a1081611685565b840191505092915050565b600061012083016000830151611a3460008601826119a1565b506020830151611a4760208601826119c2565b506040830151611a5a60408601826119a1565b506060830151611a6d60608601826119a1565b506080830151611a8060808601826119a1565b5060a0830151611a9360a08601826119a1565b5060c083015184820360c0860152611aab82826119e2565b91505060e083015184820360e0860152611ac582826119e2565b915050610100830151848203610100860152611ae182826119e2565b9150508091505092915050565b6000611afa8383611a1b565b905092915050565b6000602082019050919050565b6000611b1a82611975565b611b248185611980565b935083602082028501611b3685611991565b8060005b85811015611b725784840389528151611b538582611aee565b9450611b5e83611b02565b925060208a01995050600181019050611b3a565b50829750879550505050505092915050565b60006020820190508181036000830152611b9e8184611b0f565b905092915050565b6000602082019050611bbb6000830184611630565b92915050565b7f4e487b7100000000000000000000000000000000000000000000000000000000600052602260045260246000fd5b60006002820490506001821680611c0857607f821691505b602082108103611c1b57611c1a611bc1565b5b50919050565b7f43616d706169676e20646f6573206e6f742065786973742e0000000000000000600082015250565b6000611c5760188361164a565b9150611c6282611c21565b602082019050919050565b60006020820190508181036000830152611c8681611c4a565b9050919050565b7f43616d706169676e20676f616c20686173206e6f74206265656e20726561636860008201527f65642e0000000000000000000000000000000000000000000000000000000000602082015250565b6000611ce960238361164a565b9150611cf482611c8d565b604082019050919050565b60006020820190508181036000830152611d1881611cdc565b9050919050565b7f4f6e6c79207468652063616d706169676e2063726561746f722063616e20776960008201527f7468647261772066756e64732e00000000000000000000000000000000000000602082015250565b6000611d7b602d8361164a565b9150611d8682611d1f565b604082019050919050565b60006020820190508181036000830152611daa81611d6e565b9050919050565b7f4e487b7100000000000000000000000000000000000000000000000000000000600052601160045260246000fd5b6000611deb8261155d565b9150611df68361155d565b9250828202611e048161155d565b91508282048414831517611e1b57611e1a611db1565b5b5092915050565b7f4e487b7100000000000000000000000000000000000000000000000000000000600052601260045260246000fd5b6000611e5c8261155d565b9150611e678361155d565b925082611e7757611e76611e22565b5b828204905092915050565b6000611e8d8261155d565b9150611e988361155d565b9250828203905081811115611eb057611eaf611db1565b5b92915050565b600081905092915050565b50565b6000611ed1600083611eb6565b9150611edc82611ec1565b600082019050919050565b6000611ef282611ec4565b9150819050919050565b7f455448205769746864726177616c206661696c65640000000000000000000000600082015250565b6000611f3260158361164a565b9150611f3d82611efc565b602082019050919050565b60006020820190508181036000830152611f6181611f25565b9050919050565b7f436f6d6d697373696f6e207472616e73666572206661696c6564000000000000600082015250565b6000611f9e601a8361164a565b9150611fa982611f68565b602082019050919050565b60006020820190508181036000830152611fcd81611f91565b9050919050565b7f43616d706169676e20676f616c20686173206265656e20726561636865642e00600082015250565b600061200a601f8361164a565b915061201582611fd4565b602082019050919050565b6000602082019050818103600083015261203981611ffd565b9050919050565b7f596f752068617665206e6f7420636f6e747269627574656420746f207468697360008201527f2063616d706169676e2e00000000000000000000000000000000000000000000602082015250565b600061209c602a8361164a565b91506120a782612040565b604082019050919050565b600060208201905081810360008301526120cb8161208f565b9050919050565b7f45544820526566756e64206661696c6564000000000000000000000000000000600082015250565b600061210860118361164a565b9150612113826120d2565b602082019050919050565b60006020820190508181036000830152612137816120fb565b9050919050565b7f43616d706169676e20646561646c696e6520686173207061737365642e000000600082015250565b6000612174601d8361164a565b915061217f8261213e565b602082019050919050565b600060208201905081810360008301526121a381612167565b9050919050565b60006121b58261155d565b91506121c08361155d565b92508282019050808211156121d8576121d7611db1565b5b92915050565b60006121e98261155d565b91507fffffffffffffffffffffffffffffffffffffffffffffffffffffffffffffffff820361221b5761221a611db1565b5b600182019050919050565b60008190508160005260206000209050919050565b60006020601f8301049050919050565b600082821b905092915050565b6000600883026122887fffffffffffffffffffffffffffffffffffffffffffffffffffffffffffffffff8261224b565b612292868361224b565b95508019841693508086168417925050509392505050565b6000819050919050565b60006122cf6122ca6122c58461155d565b6122aa565b61155d565b9050919050565b6000819050919050565b6122e9836122b4565b6122fd6122f5826122d6565b848454612258565b825550505050565b600090565b612312612305565b61231d8184846122e0565b505050565b5b818110156123415761233660008261230a565b600181019050612323565b5050565b601f8211156123865761235781612226565b6123608461223b565b8101602085101561236f578190505b61238361237b8561223b565b830182612322565b50505b505050565b600082821c905092915050565b60006123a96000198460080261238b565b1980831691505092915050565b60006123c28383612398565b9150826002028217905092915050565b6123db8261163f565b67ffffffffffffffff8111156123f4576123f361177b565b5b6123fe8254611bf0565b612409828285612345565b600060209050601f83116001811461243c576000841561242a578287015190505b61243485826123b6565b86555061249c565b601f19841661244a86612226565b60005b828110156124725784890151825560018201915060208501945060208101905061244d565b8683101561248f578489015161248b601f891682612398565b8355505b6001600288020188555050505b505050505050565b600081546124b181611bf0565b6124bb818661164a565b945060018216600081146124d657600181146124ec5761251f565b60ff19831686528115156020028601935061251f565b6124f585612226565b60005b83811015612517578154818901526001820191506020810190506124f8565b808801955050505b50505092915050565b60006101208201905061253e600083018c611567565b61254b602083018b611630565b818103604083015261255d818a6124a4565b9050818103606083015261257181896124a4565b9050818103608083015261258581886124a4565b905061259460a0830187611567565b6125a160c0830186611567565b6125ae60e0830185611567565b6125bc610100830184611567565b9a9950505050505050505050565b7f4e487b7100000000000000000000000000000000000000000000000000000000600052603260045260246000fdfea2646970667358221220d371717bce7894f2fdee39da4536162e78210093735c0f57fabfa4cef845a41a64736f6c63430008110033",
  "immutableReferences": {},
  "source": "// SPDX-License-Identifier: MIT\npragma solidity ^0.8.17;\n\n// best solution for no backend. Everything works, but it required the second \n// sctruct that is there to show data from the first one and be iterable.\n\n\ncontract CrowdfundingCampaign {\n\n    address payable public deployer;\n\n    constructor() {\n        deployer = payable(msg.sender);\n    }\n\n    struct Campaign {\n        uint campaignID;\n        address payable owner;\n        string title;\n        string description;\n        string image;\n        uint duration;\n        uint raisingGoal; //you called it target\n        uint deadline;\n        uint amountCollected;\n        mapping(address => uint) donators;\n    }\n\n    mapping(uint => Campaign) public campaigns;\n\n    event LogCampaign(\n        uint campaignID,\n        address payable owner,\n        string title,\n        string description,\n        string image,\n        uint duration,\n        uint raisingGoal,\n        uint deadline,\n        uint amountCollected\n    );\n\n    uint public numberOfCampaigns = 0;\n\n    function createCampaign(\n        uint _duration,\n        uint _raisingGoal,\n        string memory _title,\n        string memory _description,\n        string memory _image\n    )public returns (uint256){\n\n        // Check for past campaigns that have passed deadline and have no donations\n        for (uint i = 0; i < numberOfCampaigns; i++) {\n            Campaign storage campaign = campaigns[i];\n            if (block.timestamp > campaign.deadline && campaign.amountCollected == 0) {\n                delete campaigns[i];\n            } // delete old and empty campaignes\n        }\n\n        uint _campaignID = ++numberOfCampaigns; //assign campaignID\n        uint _deadline = block.timestamp + _duration; //calculate deadline based on duration (better, than taking deadline directly, since it doesn't need checks for past time)\n\n        campaigns[_campaignID].campaignID = _campaignID;\n        campaigns[_campaignID].owner = payable(msg.sender);\n        campaigns[_campaignID].title = _title;\n        campaigns[_campaignID].description = _description;\n        campaigns[_campaignID].image = _image;\n        campaigns[_campaignID].duration = _duration;\n        campaigns[_campaignID].raisingGoal = _raisingGoal;\n        campaigns[_campaignID].deadline = _deadline;\n        campaigns[_campaignID].amountCollected = 0;\n\n        emit LogCampaign(campaigns[_campaignID].campaignID,\n        campaigns[_campaignID].owner,\n        campaigns[_campaignID].title,\n        campaigns[_campaignID].description,\n        campaigns[_campaignID].image,\n        campaigns[_campaignID].duration,\n        campaigns[_campaignID].raisingGoal,\n        campaigns[_campaignID].deadline,\n        campaigns[_campaignID].amountCollected);\n        \n        return numberOfCampaigns; // <-- get total amount of campaigns, so next one will have next ID.\n    }\n\n    // function to add ETH to a specific campaign, checked if it's still ongoing, stores donator and amount of ETH\n    function donateToCampaign(uint _campaignID) public payable {\n        \n        Campaign storage campaign = campaigns[_campaignID];\n        require(campaign.campaignID != 0, \"Campaign does not exist.\");\n        require(block.timestamp < campaign.deadline, \"Campaign deadline has passed.\");\n        campaign.amountCollected += msg.value;  // <-- transfer msg.value here and add it to amountCollected\n        campaign.donators[msg.sender] += msg.value;  // <-- store msg.value here linked to a donator address, so we can use it for the refund function later\n    }\n    \n    // function to return ETH to donator on calling it\n    function refund(uint _campaignID) public {\n        Campaign storage campaign = campaigns[_campaignID];\n        require(campaign.campaignID != 0, \"Campaign does not exist.\");\n        require(campaign.amountCollected < campaign.raisingGoal, \"Campaign goal has been reached.\");\n        require(campaign.donators[msg.sender] > 0, \"You have not contributed to this campaign.\");\n        // require(block.timestamp > campaign.deadline, \"Campaign deadline has not passed.\"); // <-- optional function to refund only if campaign fails\n\n        address payable sender = payable(msg.sender); // <-- assign sender value\n        \n        // Refund the caller's contribution\n        uint amount = campaign.donators[msg.sender]; // <-- get the transfer value from mapping storage\n        (bool sent, ) = sender.call{value: amount}(\"\"); // <-- check if the transfer was successful, return 'sent' on success\n        require(sent, \"ETH Refund failed\"); // <-- if no 'sent', return an error\n        campaign.donators[msg.sender] = 0;  // <-- set contribution to 0\n        campaign.amountCollected -= amount; // <-- decrease campaigns 'amountCollected', delete campaign when all funds returned\n        if (campaign.amountCollected == 0 && block.timestamp > campaign.deadline){\n            delete campaigns[_campaignID];\n        }\n    }\n\n    function withdrawFunds(uint _campaignID) public { // <-- only available for Campaign creator, if funds were fully raised\n    \n        Campaign storage campaign = campaigns[_campaignID];\n        require(campaign.campaignID != 0, \"Campaign does not exist.\");\n        require(campaign.amountCollected >= campaign.raisingGoal, \"Campaign goal has not been reached.\"); // <-- check fund goal\n        require(msg.sender == campaign.owner, \"Only the campaign creator can withdraw funds.\"); // <-- check caller's adress, fail if not owner\n        \n        uint commission = campaign.amountCollected * 5 / 100; // <-- calculate comission\n        uint withdrawalAmount = campaign.amountCollected - commission; // <-- calculate withdrawalAmount\n        (bool sent, ) = campaign.owner.call{value: withdrawalAmount}(\"\"); // <-- withdraw funds only for called Campaign, returns 'sent' on success\n        require(sent, \"ETH Withdrawal failed\"); // <-- if no 'sent', return an error\n        \n        (bool commissioned, ) = deployer.call{value: commission}(\"\"); // <-- same but for comission\n        require(commissioned, \"Commission transfer failed\");\n        \n        delete campaigns[_campaignID]; // <-- remove our withdrawn Campaign from our mapping storage\n    }\n\nstruct CampaignView {\n    uint campaignID;\n    address owner;\n    uint duration;\n    uint raisingGoal;\n    uint deadline;\n    uint amountCollected;\n    string title;\n    string description;\n    string image;\n}\n\n//function to get all created campaigns via CampaignView. Doesn't give info about donators, that's why it works for iteration (no nested mapping)\nfunction getAllCampaigns() public view returns (CampaignView[] memory) {\n    CampaignView[] memory result = new CampaignView[](numberOfCampaigns); /* found a bug that array is returning amont based on total number of campaigns. \n    When older ones get deleted this number doesnt decrease so it returnes extra elements with 0 in the end. Don't know how to fix.*/\n    uint i = 0;\n    for (uint j = 0; j <= numberOfCampaigns; j++) {\n        if (campaigns[j].campaignID != 0) {\n            result[i].campaignID = campaigns[j].campaignID;\n            result[i].owner = campaigns[j].owner;\n            result[i].duration = campaigns[j].duration;\n            result[i].raisingGoal = campaigns[j].raisingGoal;\n            result[i].deadline = campaigns[j].deadline;\n            result[i].amountCollected = campaigns[j].amountCollected;\n            result[i].title = campaigns[j].title;\n            result[i].description = campaigns[j].description;\n            result[i].image = campaigns[j].image;\n            i++;\n        }\n    }\n    return result;\n}\n\n    function getCurrentTime()public view returns(uint){ // <-- function to get a current time, used that only for testing\n        return block.timestamp;\n    }\n}",
  "sourcePath": "A:\\Projects\\CrowdFundingDapp\\contracts\\CrowdfundingCampaign.sol",
  "compiler": {
    "name": "solc",
    "version": "0.8.17+commit.8df45f5f.Emscripten.clang"
  },
  "schemaVersion": "3.4.11",
  "updatedAt": "2023-02-07T01:22:07.814Z",
  "networkType": "ethereum",
  "devdoc": {
    "kind": "dev",
    "methods": {},
    "version": 1
  },
  "userdoc": {
    "kind": "user",
    "methods": {},
    "version": 1
  }
}